{
  "contractName": "TodoList",
  "abi": [
    {
      "inputs": [],
      "stateMutability": "nonpayable",
      "type": "constructor"
    },
    {
      "inputs": [],
      "name": "taskCount",
      "outputs": [
        {
          "internalType": "uint256",
          "name": "",
          "type": "uint256"
        }
      ],
      "stateMutability": "view",
      "type": "function",
      "constant": true
    },
    {
      "inputs": [
        {
          "internalType": "uint256",
          "name": "",
          "type": "uint256"
        }
      ],
      "name": "tasks",
      "outputs": [
        {
          "internalType": "uint256",
          "name": "id",
          "type": "uint256"
        },
        {
          "internalType": "string",
          "name": "content",
          "type": "string"
        },
        {
          "internalType": "bool",
          "name": "completed",
          "type": "bool"
        }
      ],
      "stateMutability": "view",
      "type": "function",
      "constant": true
    },
    {
      "inputs": [
        {
          "internalType": "string",
          "name": "_content",
          "type": "string"
        }
      ],
      "name": "createTasks",
      "outputs": [],
      "stateMutability": "nonpayable",
      "type": "function"
    }
  ],
  "bytecode": "0x6080604052600080553480156200001557600080fd5b506200005c6040518060400160405280601b81526020017f5374617274207573696e67207468697320746f646f206c6973742100000000008152506200006260201b60201c565b620004d4565b600080815480929190620000769062000130565b919050555060405180606001604052806000548152602001828152602001600015158152506001600080548152602001908152602001600020600082015181600001556020820151816001019081620000d09190620003ed565b5060408201518160020160006101000a81548160ff02191690831515021790555090505050565b7f4e487b7100000000000000000000000000000000000000000000000000000000600052601160045260246000fd5b6000819050919050565b60006200013d8262000126565b91507fffffffffffffffffffffffffffffffffffffffffffffffffffffffffffffffff8203620001725762000171620000f7565b5b600182019050919050565b600081519050919050565b7f4e487b7100000000000000000000000000000000000000000000000000000000600052604160045260246000fd5b7f4e487b7100000000000000000000000000000000000000000000000000000000600052602260045260246000fd5b60006002820490506001821680620001ff57607f821691505b602082108103620002155762000214620001b7565b5b50919050565b60008190508160005260206000209050919050565b60006020601f8301049050919050565b600082821b905092915050565b6000600883026200027f7fffffffffffffffffffffffffffffffffffffffffffffffffffffffffffffffff8262000240565b6200028b868362000240565b95508019841693508086168417925050509392505050565b6000819050919050565b6000620002ce620002c8620002c28462000126565b620002a3565b62000126565b9050919050565b6000819050919050565b620002ea83620002ad565b62000302620002f982620002d5565b8484546200024d565b825550505050565b600090565b620003196200030a565b62000326818484620002df565b505050565b5b818110156200034e57620003426000826200030f565b6001810190506200032c565b5050565b601f8211156200039d5762000367816200021b565b620003728462000230565b8101602085101562000382578190505b6200039a620003918562000230565b8301826200032b565b50505b505050565b600082821c905092915050565b6000620003c260001984600802620003a2565b1980831691505092915050565b6000620003dd8383620003af565b9150826002028217905092915050565b620003f8826200017d565b67ffffffffffffffff81111562000414576200041362000188565b5b620004208254620001e6565b6200042d82828562000352565b600060209050601f83116001811462000465576000841562000450578287015190505b6200045c8582620003cf565b865550620004cc565b601f19841662000475866200021b565b60005b828110156200049f5784890151825560018201915060208501945060208101905062000478565b86831015620004bf5784890151620004bb601f891682620003af565b8355505b6001600288020188555050505b505050505050565b61089b80620004e46000396000f3fe608060405234801561001057600080fd5b50600436106100415760003560e01c80638d97767214610046578063b6cb58a514610078578063c45d2e0014610096575b600080fd5b610060600480360381019061005b9190610252565b6100b2565b60405161006f93929190610339565b60405180910390f35b610080610171565b60405161008d9190610377565b60405180910390f35b6100b060048036038101906100ab91906104c7565b610177565b005b60016020528060005260406000206000915090508060000154908060010180546100db9061053f565b80601f01602080910402602001604051908101604052809291908181526020018280546101079061053f565b80156101545780601f1061012957610100808354040283529160200191610154565b820191906000526020600020905b81548152906001019060200180831161013757829003601f168201915b5050505050908060020160009054906101000a900460ff16905083565b60005481565b6000808154809291906101899061059f565b9190505550604051806060016040528060005481526020018281526020016000151581525060016000805481526020019081526020016000206000820151816000015560208201518160010190816101e19190610793565b5060408201518160020160006101000a81548160ff02191690831515021790555090505050565b6000604051905090565b600080fd5b600080fd5b6000819050919050565b61022f8161021c565b811461023a57600080fd5b50565b60008135905061024c81610226565b92915050565b60006020828403121561026857610267610212565b5b60006102768482850161023d565b91505092915050565b6102888161021c565b82525050565b600081519050919050565b600082825260208201905092915050565b60005b838110156102c85780820151818401526020810190506102ad565b60008484015250505050565b6000601f19601f8301169050919050565b60006102f08261028e565b6102fa8185610299565b935061030a8185602086016102aa565b610313816102d4565b840191505092915050565b60008115159050919050565b6103338161031e565b82525050565b600060608201905061034e600083018661027f565b818103602083015261036081856102e5565b905061036f604083018461032a565b949350505050565b600060208201905061038c600083018461027f565b92915050565b600080fd5b600080fd5b7f4e487b7100000000000000000000000000000000000000000000000000000000600052604160045260246000fd5b6103d4826102d4565b810181811067ffffffffffffffff821117156103f3576103f261039c565b5b80604052505050565b6000610406610208565b905061041282826103cb565b919050565b600067ffffffffffffffff8211156104325761043161039c565b5b61043b826102d4565b9050602081019050919050565b82818337600083830152505050565b600061046a61046584610417565b6103fc565b90508281526020810184848401111561048657610485610397565b5b610491848285610448565b509392505050565b600082601f8301126104ae576104ad610392565b5b81356104be848260208601610457565b91505092915050565b6000602082840312156104dd576104dc610212565b5b600082013567ffffffffffffffff8111156104fb576104fa610217565b5b61050784828501610499565b91505092915050565b7f4e487b7100000000000000000000000000000000000000000000000000000000600052602260045260246000fd5b6000600282049050600182168061055757607f821691505b60208210810361056a57610569610510565b5b50919050565b7f4e487b7100000000000000000000000000000000000000000000000000000000600052601160045260246000fd5b60006105aa8261021c565b91507fffffffffffffffffffffffffffffffffffffffffffffffffffffffffffffffff82036105dc576105db610570565b5b600182019050919050565b60008190508160005260206000209050919050565b60006020601f8301049050919050565b600082821b905092915050565b6000600883026106497fffffffffffffffffffffffffffffffffffffffffffffffffffffffffffffffff8261060c565b610653868361060c565b95508019841693508086168417925050509392505050565b6000819050919050565b600061069061068b6106868461021c565b61066b565b61021c565b9050919050565b6000819050919050565b6106aa83610675565b6106be6106b682610697565b848454610619565b825550505050565b600090565b6106d36106c6565b6106de8184846106a1565b505050565b5b81811015610702576106f76000826106cb565b6001810190506106e4565b5050565b601f82111561074757610718816105e7565b610721846105fc565b81016020851015610730578190505b61074461073c856105fc565b8301826106e3565b50505b505050565b600082821c905092915050565b600061076a6000198460080261074c565b1980831691505092915050565b60006107838383610759565b9150826002028217905092915050565b61079c8261028e565b67ffffffffffffffff8111156107b5576107b461039c565b5b6107bf825461053f565b6107ca828285610706565b600060209050601f8311600181146107fd57600084156107eb578287015190505b6107f58582610777565b86555061085d565b601f19841661080b866105e7565b60005b828110156108335784890151825560018201915060208501945060208101905061080e565b86831015610850578489015161084c601f891682610759565b8355505b6001600288020188555050505b50505050505056fea26469706673582212203efa77925a5eb73dc7dae750659ee1fe05c4485a505796f10e53855f95da736d64736f6c63430008130033",
  "immutableReferences": {},
  "source": "// SPDX-License-Identifier: UNLICENSED\npragma solidity \"0.8.19\";\n\ncontract TodoList {\n    uint public taskCount = 0;\n\n    struct Task {\n        uint id;\n        string content;\n        bool completed;\n    }\n\n    mapping(uint => Task) public tasks;\n\n    function createTasks(string memory _content) public {\n        taskCount ++;\n        tasks[taskCount] = Task(taskCount, _content, false);\n    }\n\n    constructor() public {\n        createTasks(\"Start using this todo list!\");\n    }\n}",
  "sourcePath": "/Users/laynehunt/eth-todo-list/contracts/TodoList.sol",
  "compiler": {
    "name": "solc",
    "version": "0.8.19+commit.7dd6d404.Emscripten.clang"
  },
  "schemaVersion": "3.4.13",
  "updatedAt": "2023-03-07T17:28:58.563Z",
  "networkType": "ethereum",
  "devdoc": {
    "kind": "dev",
    "methods": {},
    "version": 1
  },
  "userdoc": {
    "kind": "user",
    "methods": {},
    "version": 1
  }
}